:100000000C94CD000C94EE000C94EE000C94EE00D9
:100010000C94EE000C94EE000C94EE000C94EE00A8
:100020000C94EE000C94EE000C944C140C94EE0026
:100030000C94EE000C9480140C94EE000C94B51CFF
:100040000C94EE000C94EE000C94EE000C94EE0078
:100050000C94EE000C94EE000C94EE000C94EE0068
:100060000C94EE000C94ED1B0C94EE000C94EE003E
:100070000C94EE000C94F41D0C94EE000C94EE0025
:100080000C943A300C9450300C94EE000C94A32F46
:100090000C94EE000C94EE000C94EE000C94EE0028
:1000A0000C94EE000C94EE000C94772F0C948D2F92
:1000B0000C94EE000C94D62E0C94EE000C94EE00F2
:1000C0000C94EE000C94EE000C94EE000C94EE00F8
:1000D0000C94EE000C94EE000C94EE000C94EE00E8
:1000E0000C94EE0072175D1734171917F416BE162C
:1000F0009016D4165D164116E115E115E115E115CE
:10010000E115E11535162A16E115E115E115E115A0
:10011000E115E115E115E115E115E115E115E1152F
:100120005D1634171E161116E115E115E115E115DE
:10013000E115E115E115E115E115E115E115E1150F
:10014000F4169016E115E1157217BE160116084A4D
:10015000D73B3BCE016E84BCBFFDC12F3D6C7431DB
:100160009ABD56833DDA3D00C77F11BED9E4BB4C32
:100170003E916BAAAABE000000803F05A84CCDB2FC
:10018000D44EB93836A9020C50B9918688083CA6DD
:10019000AAAA2ABE000000803F0011241FBECFEF94
:1001A000D1E2DEBFCDBF00E00CBF12E0A0E0B2E0C4
:1001B000E2E0FCEB00E00BBF02C007900D92AA3119
:1001C000B107D9F71BE0AAE1B2E001C01D92AF3739
:1001D000B107E1F70E94F0000C94FF5D0C94000061
:1001E0002F923F924F925F926F927F928F929F9247
:1001F000AF92BF92CF92DF92EF92FF920F931F9335
:10020000DF93CF9300D000D0CDB7DEB70E94091D99
:100210000E9495420E94BF1C9B01AC016093660442
:1002200030936704409368045093690410926A0401
:1002300010926B0410926C0410926D040E94BF1C0B
:100240007B018C010E94BF1C6E197F09800B910BF2
:1002500065547B4080409040A8F30E9492480E94E1
:10026000BF1C7B018C01442455243201CC248824FA
:1002700099241E821D8280E090E0A0E0B0E0898396
:100280009A83AB83BC83DD24DA94BEEF2B2E332418
:1002900033940E948F1C809352040E9434460E9423
:1002A0004C4480915204873009F45DC10E94BF1C08
:1002B0006E197F09800B910B6E517B4480409040FA
:1002C00008F0F8C00E94B0150E94FB0F90915204F4
:1002D000973009F40BC1983008F061C0933009F4ED
:1002E0009AC1943008F06BC1913009F4CAC19230C0
:1002F00008F093C10E94A63B90915204992309F003
:10030000D4C0C91609F449C00E9486400E948D409D
:1003100080910B01816080930B0180910B018260C1
:1003200080930B0180910B01846080930B01A39A51
:1003300080910B01806180930B0180910B018062A1
:1003400080930B0180910B01806480930B0180915D
:100350000B01806880930B01D0920802D0920902B1
:10036000D0920A028FEF0E94D942809109020E9426
:10037000EF4280910A020E94054380E00E94CE2451
:1003800080E00E949B241092180310926F04109238
:1003900056041092D70490915204C92E7ACF9B3004
:1003A00009F48DC19C3008F0F1C0993009F4B9C14D
:1003B0009A3008F4AAC180915604813009F42FC400
:1003C000813008F05BC30E94BF1C60935A04709395
:1003D0005B0480935C0490935D040E94BF1C609357
:1003E00062047093630480936404909365040E9494
:1003F000BF1C60935E0470935F04809360049093CD
:1004000061040E94824084E10E949B2484E10E9456
:10041000CE243092560480917104813009F45CC37B
:10042000813008F0FBC2D0920802B6E4B093090212
:1004300010920A020E94BF1C209162043091630452
:100440004091640450916504621B730B840B950BFF
:10045000615C73408040904010F00C94260B0E9429
:10046000BF1C20915E0430915F0440916004509164
:100470006104621B730B840B950B6E517B448040AF
:10048000904010F00C94180B809108020E94D94201
:10049000809109020E94EF4280910A020E94054366
:1004A00090915204992309F42CCF0E94EC3690913C
:1004B000520427CF0E94C81C90915204892F845067
:1004C000823008F481C1973009F4ADC1963009F447
:1004D000A9C00E94BF1C7B018C010E94B0150E9424
:1004E000FB0F90915204973009F0F5CE10920E0256
:1004F00080915604823009F4C2C7833008F003C3E8
:10050000882309F0E9C60E94B84380910B018E7FD1
:1005100080930B01109257040E94824084E10E9454
:10052000CE2484E10E949B240E94BF1C609362043D
:1005300070936304809364049093650420915A043B
:1005400030915B0440915C0450915D04621B730B1D
:10055000840B950B63537F4E8240904008F494CFF8
:100560003092560491CF0E94BF1C64197509860908
:100570009709685C72418040904008F497CED09211
:100580000802D0920902D0920A0290CE9D3009F45E
:100590007DC09D3008F45FC09E3009F0AFCE8091E1
:1005A0005604882309F096C10E946B593092560474
:1005B000309219051092EE04909152049FCE95301E
:1005C00009F4EBC0963008F4C3C080911F04813059
:1005D00009F467C3813008F0C4C180E00E94CE24D2
:1005E00080E00E949B240E94B843D0920802D092DF
:1005F0000902D0920A028FEF0E94D942809109022B
:100600000E94EF4280910A020E940543449A459A53
:100610009091520473CE0E9482400E948940909132
:1006200052046CCE90911F04913009F052CF80910A
:100630001303823008F04DCF80911803882311F006
:100640000C94B00B20920802D0920902D0920A02B8
:10065000909318033ECF80915604813009F4DFC592
:10066000813008F08EC20E946B59F4E0F093EC04E4
:1006700023E02093EB0432E030935604909152042F
:100680003DCE0E9482409091520438CE8091560413
:10069000813009F4A1C5813008F03FC10E946B5937
:1006A0000E9482408AE00E949B248AE00E94CE241D
:1006B0003092560488249924909152041FCE809140
:1006C0005604823009F446C6833008F078C1882386
:1006D00009F48FC6813009F0E8CE0E9482408AE09A
:1006E0000E949B248AE00E94CE2462E0609356041C
:1006F0000E94BF1C60935A0470935B0480935C0457
:1007000090935D0490915204F9CD30920E02809145
:100710007005813009F0F2CD0E94D03390915204DF
:10072000EDCD80915604813009F4A1C2813008F0EA
:1007300037C10E94BF1C60935A0470935B0480937E
:100740005C0490935D043092560490915204D6CD8F
:1007500080910B018E7F80930B0180910B018D7F27
:1007600080930B0180910B018B7F80930B01A398E9
:1007700080910B018F7E80930B0180910B018F7D07
:1007800080930B0180910B018F7B80930B018091F3
:100790000B018F7780930B0177CE809108020E9426
:1007A000D942809109020E94EF4280910A020E9480
:1007B00005430E94824089E10E949B2489E10E94B6
:1007C000CE24909152049ACD0E948F5D6EE170E02C
:1007D0000E94E45CED81FE81E80FF91FEF77F07075
:1007E000FE83ED8380911803813009F410C58130B8
:1007F00008F00BC28D818095809308023092180317
:100800002D813E812032310508F076C080910902A9
:100810008F3F09F45ECE80910A028F3F09F459CED2
:10082000D092080256CE80919400909195000E943B
:10083000945D0E948F5D6EE170E00E94E45C0D812A
:100840001E81080F191F0F771070802F80958093DD
:10085000080280919400909195000E94945D0E94FE
:100860008F5D6EE170E00E94E45C080F191F0F7746
:100870001070802F80958093090280919400909150
:1008800095000E94945D0E948F5D6EE170E00E9471
:10089000E45C800F911F8F7790709E838D838D8194
:1008A000809580930A0280919400909195000E9417
:1008B000945D0E948F5D60E870E00E94E45C80328D
:1008C000910508F09BC1D09208020E94BF1C2B0129
:1008D0003C01FFCD813009F0E8CD0E94B34E0E946B
:1008E000C34D813009F437C70E94CB4D813009F4E4
:1008F00003C79091520402CD2034310508F076C42C
:10090000809108028F3F09F4E4CD80910A028F3F65
:1009100009F4DFCDD0920902DCCD823009F0C5CDDB
:100920000E94B34E0E94C34D813009F476C60E94E6
:10093000CB4D8130F1F60E94CE4DB7E08B1691047D
:1009400010F40C949A0C8FEF0E94D9428FEF0E9402
:10095000EF428FEF0E94054388249924909152041E
:10096000CDCC823009F0CACC80912004882309F4D0
:10097000C5CC0E94D14360911103709112038EEF98
:100980009FE00E94FA5D0E94B8438AEA61E00E94FB
:10099000B71B1092200410921F0490915204AECC09
:1009A000823009F082CD80916F04882309F07DCDDB
:1009B00030926F040E942232909152049FCC833077
:1009C00009F4EEC4843009F070CD0E94B34E698101
:1009D0007A818B819C812091790430917A044091B5
:1009E0007B0450917C040E946B5A18160CF481CF42
:1009F00080E00E949B2480E00E94CE24E2E0E0930D
:100A000056040E94BF1C60935A0470935B04809349
:100A10005C0490935D049091520470CC823009F094
:100A200068CF0E94BF1C20915E0430915F0440910A
:100A3000600450916104621B730B840B950B675C1F
:100A400072418040904008F454CF109271040E948B
:100A5000BF1C60935E0470935F0480936004909366
:100A600061040E94BF1C60936204709363048093CE
:100A70006404909365049091520440CC823009F054
:100A8000CACC0E94BF1C20915A0430915B04409153
:100A90005C0450915D04621B730B840B950B6A59C7
:100AA00077478140904008F4B6CC84E10E94CE2480
:100AB00084E10E949B240E94BF1C60935A0470939F
:100AC0005B0480935C0490935D04309256048091A3
:100AD0007104813009F0A4CC10920802109209022E
:100AE000D0920A0280E00E94D942809109020E94BD
:100AF000EF4280910A020E94054322E02093710494
:100B000090915204FBCB843009F47BC4843008F408
:100B100028C5853009F0B8CC0E94B84380910B01FC
:100B20008F7B80930B0180910B018F7780930B015A
:100B30000E94BF1C609362047093630480936404FA
:100B40009093650420915A0430915B0440915C04B9
:100B500050915D04621B730B840B950B6B527C41AF
:100B60008040904008F490CC0E94BF1C60935A04CF
:100B700070935B0480935C0490935D041092560420
:100B800083CC823009F480C3833009F0B7CB0E9454
:100B9000B34E0E94C34D813009F0ABCE0E94CB4DC5
:100BA000982F813009F0A5CE8091ED04882309F0BB
:100BB000BCC79093ED048FEF0E9405438FEF0E9416
:100BC000D94280E80E94EF420E94CE4DA82EBB245D
:100BD0008091EB04882311F48091EC04882E9924F1
:100BE0000894810891088A149B0409F4D3C38FEFF9
:100BF0000E94BA4D45019091520480CB80349105FA
:100C000008F0A1C3D092090260CE823009F0F8CD7D
:100C10008D81809580930A0210921803F1CD0E9475
:100C2000BF1C20915A0430915B0440915C045091A8
:100C30005D04621B730B840B950B6E5376498040E9
:100C4000904008F4E8CB80E00E94CE2480E00E942F
:100C50009B240E94BF1C60935A0470935B04809392
:100C60005C0490935D0462E060935604D4CB0E94D0
:100C7000BF1C20915A0430915B0440915C04509158
:100C80005D04621B730B840B950B6E517B4480409B
:100C9000904008F42ECE22E0209356049091520406
:100CA0002DCB0E94D143809108020E94D9428091AD
:100CB00009020E94EF4280910A020E940543449873
:100CC000459880912204882309F413CE10922204BF
:100CD0008091550261E00E94B71B8091560261E04D
:100CE0000E94B71B809125029091260261E00E942C
:100CF000B71B8091250290912602892F61E00E9406
:100D0000B71B8091570261E00E94B71B8091580287
:100D100061E00E94B71B8091290290912A0261E054
:100D20000E94B71B8091290290912A02892F61E0CD
:100D30000E94B71B8091590261E00E94B71B80910D
:100D40005A0261E00E94B71B80912D0290912E0201
:100D500061E00E94B71B80912D0290912E02892F95
:100D600061E00E94B71B80915B0261E00E94B71BAB
:100D700080915C0261E00E94B71B809131029091EA
:100D8000320261E00E94B71B8091310290913202E1
:100D9000892F61E00E94B71B80915D0261E00E9493
:100DA000B71B80915E0261E00E94B71B8091350203
:100DB0009091360261E00E94B71B809135029091BC
:100DC0003602892F61E00E94B71B80915F0261E0CB
:100DD0000E94B71B8091600261E00E94B71B809166
:100DE000390290913A0261E00E94B71B809139026A
:100DF00090913A02892F61E00E94B71B80916102B5
:100E000061E00E94B71B8091620261E00E94B71B03
:100E100080913D0290913E0261E00E94B71B80915B
:100E20003D0290913E02892F61E00E94B71B8091A4
:100E3000630261E00E94B71B8091640261E00E943E
:100E4000B71B809141029091420261E00E94B71B62
:100E50008091410290914202892F61E00E94B71B6C
:100E60008091650261E00E94B71B8091660261E09B
:100E70000E94B71B809145029091460261E00E945A
:100E8000B71B8091450290914602892F61E00E9434
:100E9000B71B8091670261E00E94B71B80916802D6
:100EA00061E00E94B71B8091490290914A0261E083
:100EB0000E94B71B8091490290914A02892F61E0FC
:100EC0000E94B71B8091690261E00E94B71B80916C
:100ED0006A0261E00E94B71B80914D0290914E0220
:100EE00061E00E94B71B80914D0290914E02892FC4
:100EF00061E00E94B71B80916B0261E00E94B71B0A
:100F000080916C0261E00E94B71B80915102909128
:100F1000520261E00E94B71B8091510290915202EF
:100F2000892F61E00E94B71B80912C0461E00E9430
:100F3000B71B80912D0461E00E94B71B80912E04A5
:100F400061E00E94B71B80912F0461E00E94B71BF3
:100F50008091300461E00E94B71B8091310461E010
:100F60000E94B71B8091230461E00E94B71B80910F
:100F7000520461E00E94B71B8091030190E08072EF
:100F80009070959587959595879595958795959565
:100F900087959595879561E00E94B71B8091130313
:100FA00061E00E94B71B6091790470917A0480918E
:100FB0007B0490917C0420E030E44FE054E40E94F4
:100FC000265C0E94DF5ADC01CB0161E00E94B71B66
:100FD0006091790470917A0480917B0490917C04F3
:100FE00020E030E44FE054E40E94265C0E94DF5A87
:100FF000872F61E00E94B71B609181047091820489
:1010000080918304909184040E94DF5ADC01CB011B
:1010100061E00E94B71B609181047091820480910D
:101020008304909184040E94DF5A872F61E00E941C
:10103000B71B60918504709186048091870490911C
:1010400088040E94DF5ADC01CB0161E00E94B71BDB
:101050006091850470918604809187049091880442
:101060000E94DF5A872F61E00E94B71B6091D10276
:101070007091D2028091D3029091D4020E94DA5AE8
:10108000DC01CB0161E00E94B71B6091D10270913D
:10109000D2028091D3029091D4020E94DA5ADC01EC
:1010A000CB01892F9A2FAB2FBB27A7FDBA9561E003
:1010B0000E94B71B6091D1027091D2028091D3023D
:1010C0009091D4020E94DA5ADC01CB01CD01BB27FA
:1010D00097FDB095AB2F61E00E94B71B6091D102E4
:1010E0007091D2028091D3029091D4020E94DA5A78
:1010F000DC01CB018B2FBB2787FDB0959B2FAB2F3E
:1011000061E00E94B71B6091CD027091CE02809188
:10111000CF029091D0020E94DA5ADC01CB0161E04B
:101120000E94B71B6091CD027091CE028091CF02D8
:101130009091D0020E94DA5ADC01CB01892F9A2FBC
:10114000AB2FBB27A7FDBA9561E00E94B71B60914A
:10115000CD027091CE028091CF029091D0020E9478
:10116000DA5ADC01CB01CD01BB2797FDB095AB2F3F
:1011700061E00E94B71B6091CD027091CE02809118
:10118000CF029091D0020E94DA5ADC01CB018B2F62
:10119000BB2787FDB0959B2FAB2F61E00E94B71B4B
:1011A0008091F7029091F80295958795959587958E
:1011B00061E00E94B71B8091F5029091F60295952F
:1011C00087959595879561E00E94B71B8CE0882EE6
:1011D000912C9091520492C8809119050E94BA4DA9
:1011E000A2E0A09356049091520488C8203631059D
:1011F00008F06FC9809108028F3F09F46AC9809195
:1012000009028F3F09F465C9D0920A0262C98D8133
:10121000809580930902F2E0F0931803F1CA0E94CE
:10122000B34E0E94C34D813009F455C20E94CB4D8C
:10123000982F813009F05DCB8091ED04882309F06F
:10124000D7C29093ED048FEF0E9405438FEF0E9469
:10125000D94280E80E94EF420E94CE4D882E992408
:101260006FEF8616910409F044CB82E08093560418
:101270008FEF0E9405438FEF0E94D9428FEF0E94AB
:10128000EF42909152043AC80E94B34E0E94C34D5F
:10129000813009F4A8C20E94CB4D982F813009F00B
:1012A00028CB8091ED04882309F0B2C29093ED041D
:1012B0008FEF0E94D9420E94CE4D282F30E08091BE
:1012C000EB04882E99248216930609F4CEC34901B3
:1012D000909152040C947E01813009F0D5C80E948F
:1012E000B84380910B018B7F80930B0110925804BF
:1012F0000E9482408FE00E94CE248FE00E949B24B7
:101300008091670290916802805991400CF469C104
:101310008091690290916A02805991400CF461C1F8
:101320008091650290916602805991400CF459C1F8
:1013300080916B0290916C02805991400CF451C1E4
:1013400010925704A1C88036910508F0BECAD09209
:101350000A02BBCA0E94B34E0E94C34D813009F4F9
:101360005DC20E94CB4D813009F475C20E94BF1C42
:1013700020915A0430915B0440915C0450915D04CB
:10138000621B730B840B950B6D5C7B4B8040904014
:1013900008F4AFCA30925604909152040C947E0126
:1013A0000E94B34E69817A818B819C81209179045E
:1013B00030917A0440917B0450917C040E941B5C24
:1013C00087FD97CA80E00E949B2480E00E94CE2483
:1013D000B2E0B09356040E94BF1C60935A0470930D
:1013E0005B0480935C0490935D04909152040C9490
:1013F0007E010E946B5930925604909152040C94D5
:101400007E010E94B84380910B018F7B80930B017A
:1014100080910B018F7780930B010E94BF1C60931A
:101420006204709363048093640490936504209134
:101430005A0430915B0440915C0450915D04621B3E
:10144000730B840B950B6F5875428040904010F4DD
:101450000C94440284E10E94CE248CEE0E949B24D2
:101460000E94BF1C60935A0470935B0480935C04D9
:1014700090935D04B5E0B09356040C9444020E942E
:10148000B84380910B018F7E80930B010E948640B0
:101490000E94BF1C60936204709363048093640491
:1014A0009093650420915A0430915B0440915C0450
:1014B00050915D04621B730B840B950B63537F4E3D
:1014C0008240904008F077C18091030184FF59C1A8
:1014D00010925804809159048F5F8093590485318C
:1014E00008F06FC2409165025091660231E0423CC3
:1014F00053070CF0D0C0209167023091680261E080
:10150000233C36070CF4CBC08091690290916A02AB
:10151000835C91400CF4C3C080916B0290916C028B
:10152000B1E0833C9B070CF033C3825C91400CF02C
:10153000BEC0435C51400CF4BAC0235C31400CF493
:10154000BAC08091690290916A02835C91400CF06C
:1015500027C38FE00E949B248BEF0E94CE240C9423
:1015600044020E94B84380910B018F7B80930B0152
:101570000E94BF1C609362047093630480936404B0
:101580009093650420915A0430915B0440915C046F
:1015900050915D04621B730B840B950B6D5C76465A
:1015A0008440904008F45EC08091B9029091BA02E4
:1015B0008A57934008F463C083EF0E94CE2483EFE0
:1015C0000E949B240E94BF1C60935A0470935B048A
:1015D00080935C0490935D0434E0309356040C9443
:1015E0004402809157048F5F809357048B3010F42E
:1015F0000C94440210925804109259040E94BF1C8B
:1016000060935A0470935B0480935C0490935D0430
:1016100082E0809356040C94440280935604809197
:1016200019058F3F09F47AC18F5F809319057FC92F
:10163000309271040E94BF1C60935E0470935F043B
:1016400080936004909361040C9444020E94BF1C38
:1016500060936204709363048093640490936504C0
:101660000C942F028091030184FF02C00C94440269
:10167000109259041092580462E0609356040E943C
:10168000BF1C60935A0470935B0480935C04909336
:101690005D040C94440220916702309168028091AD
:1016A0006B0290916C02825C91400CF442CF235CFF
:1016B00031400CF04ECF8091690290916A02835CB8
:1016C00091400CF42FC18BEF0E949B248FE00E946D
:1016D000CE240C9444024091EB04242F30E08091FE
:1016E000EC0490E00197281739070CF08DC0842F87
:1016F0008F5F0E94BA4D9ACD0E94CE4D582F882EF2
:10170000992440911905242F30E02815390509F452
:1017100036C1473009F4BCC1C40101972817390705
:1017200009F4EBC1433009F43FC1443008F05EC115
:10173000413009F4F3C1423008F4B2C18FEF0E9486
:10174000D9428BEE0E94EF428FEF0E9405439091A9
:1017500052040C947E01809119050E94BA4DC4C8B0
:10176000813009F45BC1823011F00C946902D0928F
:101770000802D092090220920A02109218030C94D7
:101780006902109259048091670290916802835C0B
:10179000914034F18091690290916A02835C91409A
:1017A000FCF0809158048F5F809358048B3F08F4BD
:1017B00099CE0C94B0028CEE0E94CE248CEE0E9446
:1017C0009B240E94BF1C60935A0470935B04809317
:1017D0005C0490935D04B4E0B09356040C9444020E
:1017E000109258047FCE8091EB040E94BA4D53CDE5
:1017F0001092ED048FEF0E9405438FEF0E94D942B3
:101800008BEE0E94EF4228CD80E00E94BA4D0ECDB3
:101810001092ED048BEE0E94D9424DCD6091E6040A
:101820007091E704882777FD8095982F0E940D5BC3
:1018300024EB39E545E35FE30E94265C0E94DF5A12
:10184000DC01CB018093EA040E94BA4D0E94CB4D8B
:10185000813009F08BCD0E94BF1C60935A047093B5
:101860005B0480935C0490935D040E94CE4D90E0F5
:10187000AA2797FDA095BA2FBC01CD010E940D5B50
:1018800026EA3BE944EB5FE30E94265C0E94DA5AB9
:101890007093E5046093E4040E94D34D8093140296
:1018A0000E948640809114020E94D64D9093E704D6
:1018B0008093E60497FD27C12091E6043091E70468
:1018C0002C543F4F8091E4049091E504281B390B80
:1018D0003093E9042093E804253B310534F0285681
:1018E00031403093E9042093E8048091E80490911A
:1018F000E904AFEF8C349A0734F488599E4F9093E3
:10190000E9048093E8040996439708F092C080E0C8
:101910000E949B2480E00E94CE2428CD10921905BD
:101920000C9497048FE00E94CE248FE00E949B24A9
:101930000C9444020894811C911CE3E08E169104DF
:1019400009F424C1F4E08F16910408F0B6C021E038
:101950008216910409F418C132E08316910410F440
:101960000C94A3048FEF0E94D94280E00E94EF42C2
:101970008FEF0E940543909152040C947E01809158
:10198000EE048F5F8093EE04843008F4CBCE109287
:10199000EE04473008F0C6C0842F8F5F809319058E
:1019A000482F433009F0C1CE8FEF0E94D9428FEF0C
:1019B0000E94EF428BEE0E940543909152040C94DA
:1019C0007E0180E00E949B2480E00E94CE240E9441
:1019D000BF1C60935A0470935B0480935C049093E3
:1019E0005D04E3E0E09356040C944402453009F4AE
:1019F00093C0453008F48EC0463009F491C047309A
:101A000011F00C9479048BEE0E94D9428BEE0E9467
:101A1000EF428BEE0E9405430C947904D0920802A9
:101A200020920902D0920A02B2E0B09318030C94FB
:101A300069020E94CC1C8091E8049091E904181678
:101A400019060CF08FC089EF0E949B2487E00E944A
:101A5000CE24B4E0B09356048CEE91E5A8EBBDE340
:101A600089839A83AB83BC8381CC8FEF0E9405432B
:101A70008FEF0E94D94280E80E94EF428FEF0E94D0
:101A8000BA4D93E090935604909152040C947E01C9
:101A90008114910409F0B7CF109219051092EE0449
:101AA0008FEF0E94D9428FEF0E94EF428FEF0E948A
:101AB0000543909152040C947E0165E086169104D2
:101AC00009F443C085E088169104E8F196E0891690
:101AD0009104B9F1A7E08A16910411F00C947904ED
:101AE00080E00E94D94280E00E94EF4280E00E94A4
:101AF0000543909152040C947E0150931905109265
:101B0000EE04452F0FCE88599E4F9093E7048093A3
:101B1000E604D2CE8BEE13CE8BEE47CF8BEEC1CF49
:101B20008FEF72CF10921905BBCF1092ED048FEF9B
:101B30000E9405438FEF0E94D9428BEE0E94EF4234
:101B400043C88FEFCECF80E00ECF80E00E94D94215
:101B50008FEF0E94EF4280E00E9405439091520473
:101B60000C947E0187E00E949B2489EF0E94CE2482
:101B700093E0909356048CEE91E5A8EBBDEB89833E
:101B80009A83AB83BC83F2CB80E08BCF8FEFDECF29
:101B900086EF0E949B248FE00E94CE240C94440286
:101BA0008FE00E949B2486EF0E94CE240C94440276
:101BB0002091140381E090E00DB407FC09C0019668
:101BC00037E280319307C0F321E00DB407FEF7CF71
:101BD00020931403089584B1807F84B984B1876011
:101BE00084B980E58CBD8DB581608DBD08951CBC28
:101BF0001DBC0895482F6623E9F09C01F9018081FE
:101C00008EBD2091140381E090E00DB407FC09C063
:101C1000019637E280319307C0F321E00DB407FE4F
:101C2000F7CF20931403222329F431968E2F841B9F
:101C3000861728F30895CF93DF93EC01442321F115
:101C4000A0E0B0E0FE01EA0FFB1F80818EBD809115
:101C5000140321E030E00DB407FC0AC02F5F3F4FB2
:101C600097E220313907B8F381E00DB407FEF6CFD3
:101C700080931403882341F48EB5FB01EA0FFB1F08
:101C800080831196A417F0F2DF91CF9108958EBD55
:101C90002091140381E090E00DB407FC09C0019687
:101CA00037E280319307C0F321E00DB407FEF7CF90
:101CB000209314038EB5089581E08093150383E08B
:101CC00080931603089510921503089583E080937E
:101CD00016030895289881EE0E94470E289A0895C9
:101CE000289880E60E94470E8FEF0E94470E289AA0
:101CF00008951F93162F28988F7180620E94470EB7
:101D0000812F0E94470E289A1F910895289882EEED
:101D10000E94470E289A089580913705882311F074
:101D200080E0089528988FEF0E94470E289A8074CB
:101D30000895FF920F931F938B01F42E28988F71B3
:101D400080620E94470EC8016F2D0E94FA0D289AEA
:101D50001F910F91FF900895FF920F931F938B0196
:101D6000F42E28988F710E94470EC801B8014F2D9C
:101D70000E941B0E289A1F910F91FF900895FF92C9
:101D80000F931F93CF93DF93082FF92E162F2898C8
:101D900081EE0E94470E289A289888EA0E94470EF2
:101DA000112359F0802F9F2D9C01E90189910E94F8
:101DB000470E9E01201B2117C8F3289ADF91CF916F
:101DC0001F910F91FF900895DF93CF930F92CDB79E
:101DD000DEB71982289881E10E94470EBE016F5F2D
:101DE0007F4FCB0141E00E941B0E289A89810F9002
:101DF000CF91DF910895DF93CF930F92CDB7DEB7E8
:101E00001982289887E10E94470EBE016F5F7F4FBD
:101E1000CB0141E00E941B0E289A898181700F90AE
:101E2000CF91DF9108950F931F938C01289880E341
:101E30000E94470EC80165E00E94FA0D289A1F9182
:101E40000F9108950F931F938C012C9828988AE284
:101E50000E94470EC80165E00E94FA0D289A2C9A4C
:101E60001F910F9108951F93CF93DF93EC01162FCD
:101E7000809137058823E1F72C9881E0809337051E
:101E8000289880E20E94470E8AE40E94470E289A12
:101E9000289881EE0E94470E289A289880EA0E948E
:101EA000470ECE01612F0E94FA0D289A2C9ADF91DD
:101EB000CF911F9108950F931F93DF93CF9300D07D
:101EC000CDB7DEB7289880E20E94470E8DE00E94D1
:101ED000470E289A289883E20E94470E81E00E94CC
:101EE000470E289A809111039091120399838A8357
:101EF0001B82289880E30E94470E8E010F5F1F4FC0
:101F0000C80163E00E94FA0D289A28988AE20E948C
:101F1000470EC80163E00E94FA0D289A289881E2D2
:101F20000E94470E81E00E94470E289A289882E27C
:101F30000E94470E81E00E94470E289A289884E26A
:101F40000E94470E82E10E94470E289A289885E257
:101F50000E94470E88E20E94470E289A289881E343
:101F60000E94470E8DE00E94470E289A289880E52F
:101F70000E94470E83E70E94470E289A28988CE318
:101F80000E94470E81E00E94470E289A28988DE310
:101F90000E94470E86E00E94470E289A289880E209
:101FA0000E94470E8FE00E94470E289A0F900F90D4
:101FB0000F90CF91DF911F910F9108952C9A289A3D
:101FC0000E945B0F08950F931F938C01289881E660
:101FD0000E94470EC801B8014DE00E941B0E289ACE
:101FE000289887E20E94470E80E40E94470E289AB4
:101FF0001F910F9108950F931F93DF93CF930F922B
:10200000CDB7DEB780913705882331F00F90CF919F
:10201000DF911F910F91089528988FEF0E94470E2E
:10202000289A86FFF3CF8091130382608093130375
:10203000289887E20E94470E80E70E94470E289A60
:102040001982289887E10E94470EBE016F5F7F4F7B
:10205000CB0141E00E941B0E289A898180FDD6CFDA
:10206000289881E60E94470E8CE899E0BC014DE07B
:102070000E941B0E289A289887E20E94470E80E44F
:102080000E94470E289A289882EE0E94470E289AAE
:1020900080911503813009F491C280918C098823C5
:1020A000B9F480918D09882399F480918E09882351
:1020B00079F480918F09883059F4809190098823B0
:1020C00039F480919109882319F48CE30E94671DEB
:1020D00080917005882341F580919009282F30E088
:1020E0002F7730703093100320930F036091910984
:1020F000462F50E04F77507050930E0340930D03DE
:1021000087FD27C288279927821B930B9093F6029D
:102110008093F50267FD83C388279927841B950B5D
:102120009093F8028093F70220918C0930E030936D
:10213000750920937409E0918D09F0E0F093770917
:10214000E093760900918E0910E0109379090093CD
:102150007809922F8827821B930B64E670E00E9417
:10216000D05C262F2095209308029E2F88278E1B57
:102170009F0B64E670E00E94D05C609560930A0259
:10218000902F8827801B910B64E670E00E94D05C42
:10219000609560930902822F0E94D94280910902C2
:1021A0000E94EF4280910A020E94054320918F090C
:1021B000922F20FF11C1449891FF3CC1459892FF96
:1021C00036C181E080930E0294FDE6C196FF2CC1DA
:1021D00081E08093760427FDE7C110927704809117
:1021E000920980FF1BC180910B018E7F80930B01B0
:1021F0008091920981FF0CC180910B018D7F8093AA
:102200000B018091920982FFFDC080910B018B7FB1
:1022100080930B018091920983FFF2C0A398809173
:10222000920984FFE7C080910B018F7E80930B01A0
:102230008091920985FFD8C080910B018F7D80939A
:102240000B018091920986FFC9C080910B018F7BA1
:1022500080930B018091920987FDAAC180910B01A7
:10226000806880930B0180915204883009F476C114
:10227000809107028093C408853009F474C28630C7
:1022800008F0DAC0833009F4F4C1843009F054C096
:1022900080915D0290915E028093C508892F990F0D
:1022A000990B8093C6088091650290916602809395
:1022B000C708892F990F990B8093C80880916702EE
:1022C000909168028093C908892F990F990B809388
:1022D000CA088091690290916A028093CB08892F85
:1022E000990F990B8093CC0880916B0290916C02AE
:1022F0008093CD08892F990F990B8093CE088091F8
:102300002C0490912D048093CF08892F990F990B5D
:102310008093D00880912E0490912F048093D1084F
:10232000892F990F990B8093D20880912304809371
:10233000D30885E080930702289881EE0E94470E1B
:10234000289A289888EA0E94470E8091C4080E9423
:10235000470E8091C5080E94470E8091C6080E94D2
:10236000470E8091C7080E94470E8091C8080E94BE
:10237000470E8091C9080E94470E8091CA080E94AA
:10238000470E8091CB080E94470E8091CC080E9496
:10239000470E8091CD080E94470E8091CE080E9482
:1023A000470E8091CF080E94470E8091D0080E946E
:1023B000470E8091D1080E94470E8091D2080E945A
:1023C000470E8091D3080E94470E289A0F90CF9114
:1023D000DF911F910F910895449AEECE80910B01E9
:1023E000806480930B0136CF80910B0180628093D3
:1023F0000B0127CF80910B01806180930B0118CFD7
:10240000A39A0DCF80910B01846080930B0102CFC2
:1024100080910B01826080930B01F3CE80910B01C0
:10242000816080930B01E4CE10927604D4CE10929A
:102430000E02CACE459AC3CE863009F4C5C0873095
:1024400009F07ACF6091D1027091D2028091D302CB
:102450009091D4020E94DA5A6093C508272F382F32
:10246000492F552747FD5A952093C6089C015527AB
:1024700037FD5095452F2093C708692F992767FD91
:102480009095792F892F6093C8086091CD02709143
:10249000CE028091CF029091D0020E94DA5A6093CE
:1024A000C908272F382F492F552747FD5A952093C4
:1024B000CA089C01552737FD5095452F2093CB081E
:1024C000692F992767FD9095792F892F6093CC0804
:1024D0006091790470917A0480917B0490917C04DE
:1024E00060937D0470937E0480937F0490938004B6
:1024F00020E030E44FE054E40E94265C0E94DA5A67
:102500006093CD08672F770F770B6093CE086091AB
:1025100081047091820480918304909184040E94CC
:10252000DF5A6093CF087093D00860918504709152
:10253000860480918704909188040E94DF5A6093FA
:10254000D1087093D2081092D30883E080930702D9
:10255000F3CE3093F6022093F502DCCD8091700526
:10256000882309F085CE8091930980FF81CE0E9457
:1025700092488FEF93E09093660280936502909368
:102580006C0280936B0286E08093630B81E0809302
:10259000BD08809370056CCE0E9492480E94CC1CAE
:1025A00020918F09922F12CE81E08093770417CE6D
:1025B00080910B018F7780930B0155CE84EC98E0CE
:1025C00060E10E94BF0E22CD8091350290913602CB
:1025D0008093C50880913502909136029093C60889
:1025E00080914502909146028093C70880914502F0
:1025F000909146029093C8088091490290914A02B6
:102600008093C9088091490290914A029093CA0828
:1026100080914D0290914E028093CB0880914D02A3
:1026200090914E029093CC08809151029091520269
:102630008093CD0880915102909152029093CE08E0
:1026400080913004909131048093CF08892F990FA5
:10265000990B8093D0088091B9029091BA0280932F
:10266000D1089093D2081092D30887E08093070294
:1026700063CE80915502909156028093C508892FB0
:10268000990F990B8093C608809157029091580238
:102690008093C708892F990F990B8093C808809160
:1026A000590290915A028093C908892F990F990B6A
:1026B0008093CA0880915B0290915C028093CB0862
:1026C000892F990F990B8093CC0880915F0290918C
:1026D00060028093CD08892F990F990B8093CE08C3
:1026E00080916102909162028093CF08892F990FA7
:1026F000990B8093D008809163029091640280933B
:10270000D108892F990F990B8093D208209103014A
:10271000809103014091030190E080729070959543
:102720008795959587959595879595958795959591
:102730008795880F991F441F4427441F440F440F57
:10274000482B30E0207130703595279535952795C9
:102750003595279535952795422B4093D30884E0EE
:1027600080930702E9CD8091250290912602809303
:10277000C50880912502909126029093C608809109
:10278000290290912A028093C70880912902909192
:102790002A029093C80880912D0290912E02809376
:1027A000C90880912D0290912E029093CA088091C1
:1027B0003102909132028093CB0880913102909146
:1027C00032029093CC088091390290913A02809322
:1027D000CD088091390290913A029093CE08809171
:1027E0003D0290913E028093CF0880913D029091EE
:1027F0003E029093D00880914102909142028093D2
:10280000D10880914102909142029093D208809128
:1028100052048093D30886E0809307028DCD5093B5
:10282000F8024093F70280CC909116039093C4086D
:1028300080918C09981741F00E94FB0F90918C09B0
:10284000809116039817C1F71092C4089F3F21F09A
:102850009F5F90931603089583E080931603089575
:10286000CF93DF93E8E6F0E01082ACE6B0E01C9294
:1028700020EB30E0E90118821092B1001092700054
:102880008081826080838C9180688C938881826053
:102890008883DF91CF9108951F920F920FB60F9208
:1028A00011248F9380910E02882321F180910301DE
:1028B00086FD20C0809168008D7F809368008091A4
:1028C0006C008F7780936C0081E080930F028DE025
:1028D0008093B3008091B10086608093B1008091B5
:1028E000700082608093700010921C0210921D0292
:1028F00010921E028F910F900FBE0F901F9018958F
:102900001F920F920FB60F9211242F933F934F9364
:102910005F938F939F938091B100887F8093B100E4
:1029200080910F02882359F18091030186FD69C0CF
:1029300010920F0283E38093B3008091B100866010
:102940008093B100809170008260809370008091CC
:102950000102909102022FEF8F3F920729F001961A
:1029600090930202809301029F918F915F914F910A
:102970003F912F910F900FBE0F901F90189540918F
:102980000102509102028FEF4F3F580709F44AC0ED
:102990004130510509F480C0CA010297059708F437
:1029A00050C0CA010797069708F0ABC086E3809332
:1029B000B3008091B10086608093B1008091700077
:1029C0008260809370002091030130E020743070A9
:1029D0000024220F331F001C220F331F001C232F43
:1029E000302D8CE090E0841B950B02C0220F331F2A
:1029F0008A95E2F780911C02820F80931C02CA0123
:102A0000AECF8091680082608093680080916C00F6
:102A1000806880936C008FEF9FEF90930202809309
:102A20000102A2CF8091030186FF54C0809168000B
:102A300082608093680080916C00806880936C0055
:102A400093CF86E38093B3008091B100866080933A
:102A5000B10080917000826080937000209103012A
:102A600030E0207430700024220F331F001C220F2E
:102A7000331F001C232F302D86E090E0841B950B24
:102A800002C0220F331F8A95E2F780911D02820F48
:102A900080931D02CA0163CF8091030190E080748E
:102AA0009070082E892F000C881F990B000C881F2E
:102AB000991F80931E0286E38093B3008091B1003A
:102AC00086608093B1008091700082608093700076
:102AD000CA0145CF8CE18093B3008091B10086603C
:102AE0008093B1008091700082608093700010929A
:102AF0001C0210921D0210921E0240E050E0CA011A
:102B00002ECF4D30510509F07ACF10927000809190
:102B1000680082608093680080916C008068809378
:102B20006C008FEF9FEF90930202809301028091DF
:102B30001E028093000280911D0280931A028091F0
:102B40001C0280931B0281E0809324040DCF8091AE
:102B50000002089580911A02089580911B02089541
:102B600080910E02882321F080912404882309F4A7
:102B70000895109224040E94BF1C209127043091D4
:102B800028044091290450912A04621B730B840B82
:102B9000950B635877408040904050F30E94BF1CD3
:102BA00060932704709328048093290490932A0447
:102BB00080911B0280932304E82FF0E0E533F105B8
:102BC000C0F04091F5025091F6022091F702309149
:102BD000F802CA01642F892F57FDB7C160930F0314
:102BE0008093100337FDA8C130930E0320930D038B
:102BF0000895EE58FF4FEE0FFF1F0590F491E02D62
:102C000019948091260490E00196837090708093CF
:102C10002604813009F4CAC1813008F0BBC110928A
:102C20007604109277044091F5025091F6022091BB
:102C3000F7023091F802CDCF1092760481E08093B4
:102C400077044091F5025091F6022091F7023091FD
:102C5000F802BFCF109276044091F5025091F6022F
:102C60002091F7023091F802B4CF81E0809376048E
:102C70004091F5025091F6022091F7023091F8024E
:102C8000A8CF2091F7023091F802225030403093C3
:102C9000F8022093F7028FEF213838070CF05AC161
:102CA00081E89FEF9093F8028093F7024091F5023C
:102CB0005091F60221E83FEF8CCF4091F502509100
:102CC000F6028091F3029091F402481759070CF034
:102CD0005BC19A01425050405093F6024093F50276
:102CE000225030403093F8022093F7028FEF4138A2
:102CF000580744F481E89FEF9093F6028093F50221
:102D000041E85FEF8FEF213838070CF062CF81E8A0
:102D10009FEF9093F8028093F70221E83FEF59CF9D
:102D20004091F5025091F602425050405093F60205
:102D30004093F5026091F7027091F8026E5F7F4F49
:102D40009B017093F8026093F7028FEF41385807A8
:102D500044F481E89FEF9093F6028093F50241E8F6
:102D60005FEF603871050CF434CF8FE790E09093FB
:102D7000F8028093F7022FE730E02BCF1092F60293
:102D80001092F5021092F8021092F702809152040C
:102D9000883009F418C16091F5028091F602209103
:102DA000F7023091F8021ACF4091F5025091F602E5
:102DB000425050405093F6024093F5022FEF4138B5
:102DC00052070CF002CF81E89FEF9093F6028093B8
:102DD000F5028FE790E02091F7023091F80290938E
:102DE000100380930F03FECE4091F5025091F6023E
:102DF0004E5F5F4F5093F6024093F5026091F702E9
:102E00007091F802625070409B017093F8026093D9
:102E1000F7024038510544F08FE790E09093F602B6
:102E20008093F5024FE750E061587F4F0CF0D1CE10
:102E30006ECF2091F7023091F8022E5F3F4F309312
:102E4000F8022093F702203831050CF483C08FE795
:102E500090E09093F8028093F7024091F502509130
:102E6000F6022FE730E0B5CE4091F5025091F60220
:102E70002091F7023091F802241735070CF082C038
:102E80009A014E5F5F4F5093F6024093F5022E5F1A
:102E90003F4F3093F8022093F7024038510544F039
:102EA0008FE790E09093F6028093F5024FE750E0B1
:102EB000203831050CF48DCE58CF4091F502509159
:102EC000F6024E5F5F4F5093F6024093F502403892
:102ED00051050CF47ACE8FE790E09093F602809340
:102EE000F50259CF8091250490E0019665E070E0ED
:102EF0000E94E45C80932504882389F5449A459ACE
:102F000010920A028FEF8093090280930802809149
:102F100008020E94D942809109020E94EF428091EA
:102F20000A020E9405434091F5025091F602209159
:102F3000F7023091F8024DCE88279927821B930B18
:102F400090930E0380930D03089588279927841B7F
:102F5000950B45CF4091F5025091F6023ACE813063
:102F600009F44EC0823009F453C0833009F45AC0CA
:102F7000843069F68FEF80930A0280930902809370
:102F80000802C5CFA9017DCF2091F7023091F80248
:102F9000A901A0CE823009F44FCE833009F051CE82
:102FA00081E080937604809377040BCE809376043F
:102FB000109277044091F5025091F6022091F702A9
:102FC0003091F80206CE0E9492488FEF93E09093E2
:102FD00066028093650290936C0280936B0286E098
:102FE0008093630B81E08093BD08809370054091CE
:102FF000F5025091F6022091F7023091F802E9CDE6
:103000008FEF80930A0210920902809308027FCF0B
:10301000449845988FEF80930A028093090210929A
:10302000080275CF10920A0210920902109208024B
:103030006ECF0895EF92FF920F931F93CF93DF937C
:10304000EC0188819981892B09F4B2C0E090290BA9
:10305000F0902A0BF092C308E092C20828813981CF
:1030600037FDE4C08091EF029091F002281B390BEC
:1030700030932A0B2093290BF901209107033091FB
:1030800008032E0F3F1F309308032093070386E0A9
:10309000213438070CF4ADC080E496E09093080327
:1030A0008093070320E436E008811981C901880F65
:1030B000991F820F931FAC01662757FD6095762FED
:1030C000CF01880F991F9F01220F331F220F331F3B
:1030D000220F331F820F931FAA2797FDA095BA2FA7
:1030E000480F591F6A1F7B1FEE19FF09EE0FFF1FC4
:1030F000CF01AA2797FDA095BA2F480F591F6A1F25
:103100007B1FC801880F991F880F991F880F991F6F
:10311000AA2797FDA095BA2F480F591F6A1F7B1F3A
:103120004093FD025093FE026093FF0270930003F0
:1031300077FD6DC0141615061606170614F417FD54
:1031400068C0415C5D45604070400CF480C080EC1C
:103150009DE5A0E0B0E08093FD029093FE02A09375
:10316000FF02B093000324E0B595A7959795879546
:103170002A95D1F79C01998388838091E5029091EB
:10318000E602181619060CF05DC0C9010196998374
:10319000888322E080309207F4F08FEF91E09983EA
:1031A0008883DF91CF911F910F91FF90EF90089549
:1031B000109208031092070310922A0B1092290B09
:1031C0001092C3081092C208DF91CF911F910F9106
:1031D000FF90EF90089581509E4F1CF781E09EEF85
:1031E00099838883DF91CF911F910F91FF90EF908A
:1031F000089589EF203C38070CF056CF80EC99EF0A
:10320000909308038093070320EC39EF4DCF17FD0F
:1032100098CF1092FD021092FE021092FF021092BF
:10322000000380E090E0A0E0B0E09DCF8091EF024D
:103230009091F002280F391F30932A0B2093290B0D
:10324000F9011BCFC901019799838883A2CF80918F
:10325000FD029091FE02A091FF02B0910003803424
:1032600022EA92072FEFA2072FEFB2070CF07BCFD5
:1032700080E492EAAFEFBFEF8093FD029093FE02ED
:10328000A093FF02B09300036ECFEF92FF920F93D3
:103290001F93CF93DF93EC0188819981892B09F4E7
:1032A000B2C0E0907505F0907605F0928B09E0923F
:1032B0008A092881398137FDE4C08091ED0290911F
:1032C000EE02281B390B3093760520937505F90122
:1032D00020910503309106032E0F3F1F3093060304
:1032E0002093050386E0213438070CF4ADC080E458
:1032F00096E0909306038093050320E436E008816E
:103300001981C901880F991F820F931FAC0166278D
:1033100057FD6095762FCF01880F991F9F01220FCF
:10332000331F220F331F220F331F820F931FAA2731
:1033300097FDA095BA2F480F591F6A1F7B1FEE19E2
:10334000FF09EE0FFF1FCF01AA2797FDA095BA2F07
:10335000480F591F6A1F7B1FC801880F991F880FCC
:10336000991F880F991FAA2797FDA095BA2F480F7C
:10337000591F6A1F7B1F4093010350930203609300
:1033800003037093040377FD6DC01416150616062B
:10339000170614F417FD68C0415C5D45604070403D
:1033A0000CF480C080EC9DE5A0E0B0E080930103C8
:1033B00090930203A0930303B093040354E0B595E4
:1033C000A795979587955A95D1F79C0199838883FE
:1033D0008091E7029091E802181619060CF05DC082
:1033E000C90101969983888322E080309207F4F026
:1033F0008FEF91E099838883DF91CF911F910F9197
:10340000FF90EF900895109206031092050310921A
:1034100076051092750510928B0910928A09DF913A
:10342000CF911F910F91FF90EF90089581509E4F83
:103430001CF781E09EEF99838883DF91CF911F91E4
:103440000F91FF90EF90089589EF203C38070CF022
:1034500056CF80EC99EF909306038093050320EC00
:1034600039EF4DCF17FD98CF109201031092020350
:10347000109203031092040380E090E0A0E0B0E01B
:103480009DCF8091ED029091EE02280F391F30936D
:10349000760520937505F9011BCFC9010197998322
:1034A0008883A2CF8091010390910203A09103032E
:1034B000B0910403803422EA92072FEFA2072FEF86
:1034C000B2070CF07BCF80E492EAAFEFBFEF8093BE
:1034D000010390930203A0930303B09304036ECF00
:1034E00085B7806185BF2FEF21B912B887EF84B906
:1034F00080EE85B980EF87B980EB88B98CEF8AB907
:1035000083E08BB92DB91EB810BA23BB9091550436
:10351000992399F414BA20930101109202018FE0CB
:10352000809304018091050110920501109207011A
:1035300020930A0110920B010895913089F414BA76
:1035400020930101109202018FE080930401809387
:1035500005011092070120930A0110920B010895B2
:10356000923099F488E084BB20930101109202010B
:103570008FE080930401809305011092070120934E
:103580000A0187EF80930B010895209301011092A7
:1035900002018FE0809304011092070120930A0139
:1035A000992341F2913031F2923059F308951092FB
:1035B000B8001092BC000895589A599A1092B90018
:1035C00081E08093B8000895982F84EA8093BC002E
:1035D0008091BC0087FFFCCF8091B900887F883044
:1035E00021F0803111F081E008959093BB0084E8D0
:1035F0008093BC008091BC0087FFFCCF9091B90004
:10360000987F983129F080E0903409F081E00895A6
:1036100080E00895982F24EA34E844E92093BC0020
:103620008091BC0087FFFCCF8091B900887F8830F3
:1036300011F0803199F79093BB003093BC008091DA
:10364000BC0087FFFCCF8091B900887F803211F0E9
:10365000883539F44093BC008091BC0084FDFCCFD8
:10366000DDCF089584E98093BC008091BC0084FD87
:10367000FCCF08958093BB0084E88093BC008091C8
:10368000BC0087FFFCCF8091B90090E0887F883232
:1036900009F091E0892F089584EC8093BC0080911B
:1036A000BC0087FFFCCF8091BB00089584E8809325
:1036B000BC008091BC0087FFFCCF8091BB000895C7
:1036C000982F84EA8093BC008091BC0087FFFCCFD8
:1036D0008091B900887F883021F0803111F081E03D
:1036E00008959093BB0084E88093BC008091BC0057
:1036F00087FFFCCF9091B900987F983129F080E046
:10370000903409F081E0089580E008951092C5009A
:1037100080E18093C400E0ECF0E0808182608083EF
:10372000E1ECF0E0808188698083E2ECF0E0808168
:103730008660808308951092CD0080E18093CC0054
:10374000E8ECF0E0808182608083E9ECF0E0808149
:1037500088618083EAECF0E0808186608083089550
:103760001092C0001092C1001092C2000895982FCC
:103770008091C00085FFFCCF9093C600662321F0A6
:103780008091C00086FFFCCF0895982F8091C800DB
:1037900085FFFCCF9093CE00662321F08091C80076
:1037A00086FFFCCF08958091C0008095881F8827F0
:1037B000881F089520E030E08091C00087FD0AC096
:1037C0002F5F3F4F27393105B9F781E080931A0306
:1037D00080E008958091C60008951F920F920FB661
:1037E0000F920BB60F9211242F933F934F935F9339
:1037F0006F937F938F939F93AF93BF93EF93FF93B9
:103800009091C600809152048E30C1F18F3031F119
:1038100080910D02882309F046C080911F048130F9
:1038200009F446C0823061F540912104442309F433
:103830005EC0413029F5392F20E08091110390912D
:103840001203822B932B90931203809311034093C6
:1038500020041092210440930D0212C09B3289F182
:103860009D32E9F1973609F44AC0933749F48DEF58
:103870009FE0609152050E94EC5D02C09A3A59F1B6
:10388000FF91EF91BF91AF919F918F917F916F9138
:103890005F914F913F912F910F900BBE0F900FBEF4
:1038A0000F901F90189510920D0290931F04E8CF6F
:1038B0009A3A91F1953521F780930D0210921F04E9
:1038C000DFCF809152058F3F19F08F5F80935205B3
:1038D00080936600D5CF81E08093DA04D1CF8091C8
:1038E00052058823A9F3815080935205F1CF90931C
:1038F00011031092120381E080932104C1CF8091C3
:10390000230461E00E94B71B8091660080935205FA
:1039100061E00E94B71BB4CF80932204B1CF86B17F
:1039200046B126B166B130E02870307035952795E4
:103930003595279535952795220F331F50E0447014
:1039400050705595479555954795240F351F220F73
:10395000331F70E06270707075956795260F371F82
:10396000220F331F8170820F08951F920F920FB69E
:103970000F9211240F900FBE0F901F901895609119
:103980004E0470914F048091500490915104089519
:1039900081E08093BB02089580E090E0A0E0B0E079
:1039A0008093D1029093D202A093D302B093D40219
:1039B0008093CD029093CE02A093CF02B093D00219
:1039C0008093790490937A04A0937B04B0937C0451
:1039D0008093810490938204A0938304B093840421
:1039E0008093850490938604A0938704B093880401
:1039F0008093A1049093A204A093A304B093A40481
:103A000080939D0490939E04A0939F04B093A00480
:103A10000895F89414BC15BC10926E001092200109
:103A2000109221018EEF9FE00E94BE5D90931203E1
:103A3000809311038DEF9FE00E94B65D982F8093D5
:103A4000520581508E3FB0F590936600209111038E
:103A500030911203C90181589C40039710F41092D1
:103A600055048CE02038380771F124583C4018F098
:103A700082E0809355040E94A93E0E94701A0E9421
:103A8000D31D0E942E240E949C420E94EB0D0E9496
:103A9000DE0F80911403882329F480911303816041
:103AA000809313030E94861B0E94464D0E9430148F
:103AB0007894089560916600609352058DEF9FE0C1
:103AC0000E94EC5DC3CF81E080935504D4CFCF93A7
:103AD000DF939EE1899FE0011124809168008D7F32
:103AE0008093680080916C008F7780936C00D99AE6
:103AF00010927A0080917A00806180937A0010920F
:103B00009000109291001092710088B3876088BB7A
:103B10001092A0001092A1001092720089B38760E9
:103B200089BB10928000109281000E94B01B0E94FD
:103B3000F70D0E94D71A0E94701A83B78F6083BF57
:103B400081E0809370008091B0008D7F8093B00001
:103B50008091B10087608093B100209719F088951B
:103B60002197E9F713BE8091B100887F8093B1005F
:103B7000109270008091B00082608093B0008FEF4F
:103B8000809308028093090280930A021092F20245
:103B90001092F1021092F4021092F3020E94091D99
:103BA000DF91CF910895EAE7F0E010822BE730E053
:103BB000D9011C92ACE7B0E01C92808186608083C2
:103BC0008C9180648C93808180628083D9018C91F8
:103BD000887F8C93808188608083808180688083E7
:103BE00080818064808308951F920F920FB60F9298
:103BF0000BB60F9211241F932F933F934F935F9314
:103C00006F937F938F939F93AF93BF93EF93FF93A4
:103C100080914E0490914F04A0915004B0915104B2
:103C20008F3F2FEF92072FEFA2072FEFB20709F474
:103C3000B9C00196A11DB11D80934E0490934F040D
:103C4000A0935004B093510480917800482F50E025
:103C500020917900922F80E0482B592B8091B5025A
:103C6000823009F4BDC1833008F44CC0843009F4BB
:103C7000E0C1843008F02FC18091DD029091DE0216
:103C8000480F591F569547955093DE024093DD0229
:103C90009091D604923009F04BC080912605813076
:103CA00009F47BC2813008F0F1C180912805813090
:103CB00009F407C39091B60280911F02883008F082
:103CC00050C180917B00877F80937B0080911F0291
:103CD000805C80937C00923009F450C1FF91EF9199
:103CE000BF91AF919F918F917F916F915F914F9114
:103CF0003F912F911F910F900BBE0F900FBE0F9011
:103D00001F901895882309F456C0813061F4809182
:103D1000DF029091E002480F591F56954795509346
:103D2000E0024093DF029091D604923009F4B5CFBF
:103D3000913009F434C1992309F0BCCF9091B602B7
:103D4000923009F432C3933008F0D5C1992309F4B5
:103D500071C2913009F0B0CF8091210280931F028F
:103D6000809124028093B8021092B50282E0809381
:103D7000B6021091D404113009F410C4123009F0C5
:103D800099CF80912002873109F094CF1093D60407
:103D900080912805813009F494C21092D604909144
:103DA000B6028ACF10924E0410924F041092500423
:103DB0001092510449CF609120026E3009F4D1C2B3
:103DC000E62FF0E0DF01AA0FBB1FAB5DBD4F1196E0
:103DD0005C934E9360FF72C0EE0FFF1FED5DFD4FD1
:103DE000408151812D913C91862F8695A82FB0E07E
:103DF000421B530BAA0FBB1FFD01E359FD4F8081EE
:103E00009181481B590BFD01EB5AFD4F51834083B3
:103E100057FDE8C24150544024F080E094E0918383
:103E20008083603170F4FD01EB5AFD4F0190F08109
:103E3000E02DEC33F1050CF0F4C2A354BD4FED932B
:103E4000FC9380917704882309F406C2809165026F
:103E500090916602845A9140B4F0809167029091EB
:103E60006802845A91407CF08091690290916A02C4
:103E7000845A914044F080916B0290916C02845A74
:103E800091400CF0E9C181E0809378041092F40233
:103E90001092F3021092A9001092A8001092AB00A9
:103EA0001092AA001092F2021092F1021092990060
:103EB0001092980010929B0010929A00862F8F5FAC
:103EC00080932002883108F42ECF1092200281E0E6
:103ED0008093BC0228CF863009F025CF809104055D
:103EE00090E020912002880F991F880F991F880F5A
:103EF000991F820F911D880F991FE0916B08F09117
:103F00006C08E80FF91F5183408320912002822F13
:103F100090E0880F991FE091390BF0913A0BE80F70
:103F2000F91F808191818417950720F45183408384
:103F300020912002822F90E0880F991FE091C905FF
:103F4000F091CA05E80FF91F808191814817590740
:103F500020F451834083209120022F5F2093200280
:103F6000E2CE80917B00886080937B0080911F026D
:103F7000885C80937C00923009F0B0CE8091D604AA
:103F8000882309F0ABCE80915504882309F0ABC09B
:103F900080910501807F8093050112B89FCE20910A
:103FA0000305263009F44EC2273008F0D4C0223071
:103FB00009F455C2233008F470C1243009F4D5C285
:103FC000253008F4C4C2809120028F5F80931F02C5
:103FD00086E08093B502809303059091B6026CCE83
:103FE00080910502882309F49ECE63999CCE649942
:103FF0009ACE282F2F5F20930502253008F493CE08
:104000008091F1029091F202892B51F08091EB02A4
:104010009091EC02840F951F9093EC028093EB0239
:10402000283009F080CE1092050281E080930402CE
:104030007ACE90910602992309F475CE8091000101
:1040400083FD71CE8091000184FD6DCE292F2F5FFD
:1040500020930602253008F466CE8091F3029091F9
:10406000F402892B51F08091E9029091EA02840FC9
:10407000951F9093EA028093E902283009F053CE0D
:104080001092060281E0809303024DCE833009F442
:10409000ABC0843009F00ECE809134058F5F8093E1
:1040A000340590E020913005309131058217930757
:1040B00009F40CC18091210280931F028091240297
:1040C0008093B8028091B702882309F4D3C081306D
:1040D00009F4C2C285E08093B50283E0809326058F
:1040E0009091B602E9CD813009F073C18FEF8093D2
:1040F000050112B8F3CD933009F443C1943009F0AF
:10410000DBCD8091220280931F0280912302809355
:10411000B7028091B802882309F075C183E08093CB
:10412000B5021092B602209120022E3009F42BC263
:10413000422F50E020FFBECD203108F058C2269516
:1041400081E090E002C0880F991F2A95E2F782B9BA
:104150009091B602B1CD293009F48FC12A3008F010
:104160008DC0273009F4E2C1283009F0A3CD809139
:10417000220280931F02809123028093B7028091D4
:10418000B802882309F07EC283E08093B50289E0FB
:10419000809303059091B6028FCD809155048823BA
:1041A00009F45DC0813009F01EC28FEF80930501D4
:1041B00012B88091210280931F0280912402809383
:1041C000B80285E08093B5028093D70482E08093A3
:1041D000260580913605882309F0FFC081E0809391
:1041E00036059091B60268CD809134058F5F80933B
:1041F000340590E020913005309131058217930706
:1042000009F493C08091220280931F0280912302BF
:104210008093B7028091B802882341F1813009F47C
:104220001FC285E08093B50284E0809326059091BB
:10423000B60242CD80912002869580931F02809124
:10424000B702882309F0E6C081E08093B50281E0DF
:104250008093B60291E030CD109278042FCE8091F9
:104260000501807F8093050112B8A3CF83E080937E
:10427000B502DACF81E08093B5022FCF2B3009F45D
:1042800047C12B3008F41AC12C3009F013CD85E05A
:104290008093B5029091B6020FCD222309F402C19A
:1042A000213009F007CD809120028F5F80931F029B
:1042B00086E08093B50282E0809303059091B60278
:1042C000FBCC809326059091B602F6CC1092340573
:1042D00080912F05882309F09FC181E080932F05ED
:1042E00080913605882309F001C28AEA82B980915B
:1042F00033058F5F8093330590913205891709F05C
:10430000D9CE80912E058F5F80932E058C3009F4D5
:1043100073C282E08093D70482E08093260585E013
:104320008093B5029091B602C7CC1092340580916B
:104330002F05882309F074C181E080932F058091B7
:104340003605882309F0D5C18AEA82B98091330500
:104350008F5F8093330590913205891709F052CF12
:10436000D0CF8091BB02823009F02ACD5093BA029F
:104370004093B9021092BB0246988FE080932002CE
:10438000D2CC8091210280931F02809124028093DD
:10439000B8028091B702882341F581E08093B5028D
:1043A00084E08093B60294E087CC809122028093CF
:1043B0001F02809123028093B7028091B802882364
:1043C000D9F483E08093B50283E08093B60293E052
:1043D00073CC823009F48ACE81CC1092360590914C
:1043E000B6026ACC118210821CCD813009F460C102
:1043F00085E08093B502D4CF813009F451C185E0C6
:104400008093B502E1CF813009F456C185E08093F5
:10441000B50287CE813009F447C185E08093B502AB
:1044200016CFCF01CC9695958795883791050CF0DE
:10443000FBC0A354BD4FFC97F595E795FC96ED9313
:10444000FC93FFCC809120028F5F80931F0220930A
:10445000B50287E0809303059091B6022DCC809140
:1044600020028F5F80931F0286E08093B50283E075
:10447000809303059091B6021FCC80912102809316
:104480001F02809124028093B8028091B702882392
:1044900009F0F1C09093B5028AE0809303059091F2
:1044A000B6020ACC1092200290931F0286E08093FD
:1044B000B502909303059091B602FECB8091220243
:1044C00080931F02809123028093B7028091B802EB
:1044D000882309F0C9C083E08093B50280911D054F
:1044E0008E3F18F48F5F80931D05909104059F5FA8
:1044F000909304058091D704843009F4FDC0943171
:1045000009F416C18BE0809303059091B602D4CBD9
:1045100010921F028091B702882309F0BAC09093CD
:10452000B502109203059091B602C6CB809121028C
:1045300080931F02809124028093B80286E08093CA
:10454000B50288E0809303059091B602B5CB8091C7
:1045500020028F5F80931F0286E08093B50284E083
:10456000809303059091B602A7CB809120028F5FC4
:1045700080931F0286E08093B50285E08093030557
:104580009091B60299CB8091BB02813009F0D0CDD9
:1045900082E08093BB02469A90E08ECB809120020D
:1045A000873109F0EBCB10921F021092BB021092E0
:1045B000030510920405E091390BF0913A0B80E16C
:1045C000DF011D928A95E9F78091C9059091CA058E
:1045D0006FEF70E040E150E00E949F5D1093D604C1
:1045E0001091D404CBCB823009F4DFCDE2CD8091A1
:1045F0005504882309F063C04051504055954795B4
:1046000081E090E002C0880F991F4A95E2F78093FD
:1046100005019091B60250CB10922F0512B867CECB
:1046200010922F0512B892CECF01845D9E4F9595C2
:10463000879595958795843B91050CF06AC0A354A6
:10464000BD4FE45BF040F595E795F595E795E858A3
:10465000FF4FED93FC93F5CB82E08093B5023DCD07
:1046600084E08093B502E0CD813009F4C1C085E0DB
:104670008093B50233CF813009F4AEC085E08093DA
:10468000B5020ACF813009F4ABC085E08093B50252
:104690007ECD813009F4A8C085E08093B50241CF7A
:1046A00084E08093B50290CE82E08093B502CFCDB6
:1046B00082E08093B50274CE9093B50232CD813002
:1046C00009F0B1C0209105014051504055954795E2
:1046D00081E090E002C0880F991F4A95E2F780952B
:1046E0008223809305019091B602E6CA85E582B9DE
:1046F000FECD85E582B92ACE1092040590911D0564
:1047000080910E05981708F4FDCE85E08093D704BC
:10471000F9CEA354BD4FE45AF140F595E795F595D0
:10472000E795F595E795EC54FF4FED93FC9389CB16
:104730001092040520914F083091500880916B0829
:1047400090916C089093500880934F0830936C08B8
:1047500020936B0840914C0550914D058091390B89
:1047600090913A0B90934D0580934C054093390BF3
:1047700050933A0B209138053091390530937B0BDB
:1047800020937A0B8091C9059091CA0590933905C1
:10479000809338053093CA052093C905FA0180E15A
:1047A000DF011D928A95E9F78091C9059091CA05AC
:1047B0006FEF70E040E150E00E949F5D8091D70470
:1047C000813009F445C08091D704853009F09ACE34
:1047D00086E08093D70496CE82E08093B5025CCECB
:1047E00084E08093B502D3CC82E08093B50299CE69
:1047F00084E08093B50272CE81E08093D70410925A
:1048000028051092B6021092D6040E94AD4D12B83F
:104810000E94BF1C6093290570932A0580932B0585
:1048200090932C0579CD823009F044CA209105017E
:10483000405150405595479581E090E002C0880F67
:10484000991F4A95E2F7809582238093050132CA29
:1048500082E08093D70410921D05B5CF0F931F936C
:10486000CF93DF93E0E9F0E01082A1E9B0E01C9281
:1048700021E730E0E901188240EA50E0EA011882BD
:1048800061EA70E0EB01188202E710E0E8011882AB
:104890008081836880838081836080838C918B603A
:1048A0008C938091F1029091F20290939900809301
:1048B000980010929B0010929A00D9018C9181600F
:1048C0008C9380818F7580838EB1877E8EB9EA014B
:1048D000888183688883FB0180818B6080838091DD
:1048E000F3029091F4029093A9008093A800109293
:1048F000AB001092AA00D8018C9181608C938881C2
:104900008F758883E2E0F1E08081877E8083DF918C
:10491000CF911F910F9108952EEF8130920714F4DB
:1049200081E09EEF9C0182E02030380714F02FEFE9
:1049300031E0C9010895282F332727FD309537FD31
:1049400029C030930E0320930D0387FD1AC03093C6
:10495000F8022093F702C90122E0803092073CF070
:104960008FEF91E09093F8028093F70208958150C1
:104970009E4F34F481E09EEF9093F8028093F7020B
:10498000089588279927821B930B9093F8028093B0
:10499000F702E2CF309521953F4FD3CF282F332711
:1049A00027FD309537FD29C03093100320930F0366
:1049B00087FD1AC03093F6022093F502C90122E068
:1049C000803092073CF08FEF91E09093F602809355
:1049D000F502089581509E4F34F481E09EEF90934C
:1049E000F6028093F502089588279927821B930B7E
:1049F0009093F6028093F502E2CF309521953F4FD8
:104A0000D3CF80915505882309F03FC0E091BD08C0
:104A1000E23008F477C04E2F50E0FA01EE0FFF1F8E
:104A2000EE0FFF1FEE0FFF1FEE0FFF1FEA53F74FB2
:104A3000808191812091780B3091790B82179307B7
:104A400034F001969093790B8093780B9C01FA01D6
:104A50003197DF01A295B295B07FBA27A07FBA2720
:104A6000AC51B74F8091BE049091BF048D939C933D
:104A7000EE0FFF1FEE0FFF1FEE0FFF1FEE0FFF1FCA
:104A8000EA51F74F318320830895813031F082302D
:104A900009F470C08330E9F10895E091BD08E23077
:104AA00008F49EC04E2F50E0FA01E295F295F07F97
:104AB000FE27E07FFE27EC53F74F868197812091F8
:104AC000780B3091790B8217930734F0019690930D
:104AD000790B8093780B9C01FA013197E295F2955E
:104AE000F07FFE27E07FFE27DF01A851B74F8091BE
:104AF000C0049091C1048D939C93EC51F74F378380
:104B0000268308954E2F50E02091780B3091790B39
:104B10009ECFE091BD08E23008F470C04E2F50E007
:104B2000FA01E295F295F07FFE27E07FFE27EC5335
:104B3000F74F868597852091780B3091790B8217F6
:104B4000930734F001969093790B8093780B9C0136
:104B5000FA01E295F295F07FFE27E07FFE27EC5206
:104B6000F74F8091C0049091C1049587848737875F
:104B700026870895E091BD08E230C8F14E2F50E03D
:104B8000FA01E295F295F07FFE27E07FFE27EC53D5
:104B9000F74F828593852091780B3091790B82179E
:104BA000930734F001969093790B8093780B9C01D6
:104BB000FA013197EE0FFF1FEE0FFF1FEE0FFF1FE1
:104BC000EE0FFF1FDF01A451B74F8091BE049091FB
:104BD000BF048D939C93EC51F74F33872287089540
:104BE0004E2F50E02091780B3091790B75CF4E2FDE
:104BF00050E02091780B3091790BDACF4E2F50E0B6
:104C00002091780B3091790BA3CF8F929F92AF9226
:104C1000BF92CF92DF92EF92FF920F931F93CF93A9
:104C2000DF93462F9C01220F331F220F331F280FC3
:104C3000391F2115310509F492C0862F8250823028
:104C400008F49DC0442309F077C06091E608709194
:104C5000E708621773070CF099C08091F6089091ED
:104C6000F708821793070CF01EC2809106099091F5
:104C70000709821793070CF066C38091160990917B
:104C80001709821793070CF05BC380912609909156
:104C90002709821793070CF059C380913609909128
:104CA0003709821793070CF054C3809146099091FD
:104CB0004709821793070CF052C3809156099091CF
:104CC0005709821793070CF047C3809166099091AA
:104CD0006709821793070CF045C3B901882777FD50
:104CE0008095982F0E940D5B7B018C016091640977
:104CF00070916509882777FD8095982F0E940D5B3C
:104D00009B01AC01C801B7010E94265C7B018C01AC
:104D10006091660970916709882777FD8095982FC3
:104D20000E940D5B9B01AC01C801B7010E94725A41
:104D30000E94DA5A9B0115C04330C1F1423009F498
:104D400024C1413009F4ACC0442339F2413009F4A4
:104D5000EFC0423009F461C1433009F46FC020E074
:104D600030E0C901DF91CF911F910F91FF90EF903B
:104D7000DF90CF90BF90AF909F908F900895309527
:104D800021953F4F442309F460CFD6CF8091E408AA
:104D90009091E508AC01249FC001259F900D349FA0
:104DA000900D11240E94E45C9B01DBCF6091F2081E
:104DB0007091F308621773070CF062C180910209C9
:104DC00090910309821793070CF06DC1809112092D
:104DD00090911309821793070CF0B5C280912209B4
:104DE00090912309821793070CF0AAC2809132098F
:104DF00090913309821793070CF0A8C28091420961
:104E000090914309821793070CF0A3C28091520935
:104E100090915309821793070CF0A1C28091620907
:104E200090916309821793070CF096C280917209E2
:104E300090917309821793070CF094C2B9018827E7
:104E400077FD8095982F0E940D5B7B018C0160910E
:104E5000700970917109882777FD8095982F0E94BD
:104E60000D5B9B01AC01C801B7010E94265C7B0170
:104E70008C016091720970917309882777FD809584
:104E8000982F0E940D5B9B01AC01C801B7010E94E5
:104E9000725A0E94DA5A22273327261B370B61CF1A
:104EA0006091EA087091EB08621773070CF060C01C
:104EB0008091FA089091FB08821793070CF0F3C0D9
:104EC00080910A0990910B09821793070CF03BC25D
:104ED00080911A0990911B09821793070CF030C238
:104EE00080912A0990912B09821793070CF02EC20A
:104EF00080913A0990913B09821793070CF029C2DF
:104F000080914A0990914B09821793070CF027C2B0
:104F100080915A0990915B09821793070CF01CC28B
:104F200080916A0990916B09821793070CF01AC25D
:104F3000B901882777FD8095982F0E940D5B7B0132
:104F40008C016091680970916909882777FD8095C7
:104F5000982F0E940D5B9B01AC01C801B7010E9414
:104F6000265C7B018C0160916A0970916B09D4CE3B
:104F70008091E8089091E908FC012E9FC0012F9FC5
:104F8000900D3E9F900D11240DCF6091EE08709111
:104F9000EF08621773070CF060C08091FE089091D3
:104FA000FF08821793070CF07EC080910E09909144
:104FB0000F09821793070CF0C6C180911E099091CA
:104FC0001F09821793070CF0BBC180912E099091A5
:104FD0002F09821793070CF0B9C180913E09909177
:104FE0003F09821793070CF0B4C180914E0990914C
:104FF0004F09821793070CF0B2C180915E0990911E
:105000005F09821793070CF0A7C180916E099091F8
:105010006F09821793070CF0A5C1B901882777FDA6
:105020008095982F0E940D5B7B018C0160916C092B
:1050300070916D09882777FD8095982F0E940D5BF0
:105040009B01AC01C801B7010E94265C7B018C0169
:1050500060916E0970916F0910CF8091EC0890916A
:10506000ED08AC01249FC001259F900D349F900D49
:1050700011240E94E45C22273327261B370B71CEB4
:105080008091F0089091F108FC012E9FC0012F9FA4
:10509000900D3E9F900D11240E94E45C222733273F
:1050A000261B370B5ECEC1E0D0E0C930D10509F434
:1050B0004BCE442309F059C0FE013197EE0FFF1F7C
:1050C000EE0FFF1FEE0FFF1FEE0FFF1FDF01AA51B4
:1050D000B74FCD90DC90EC51F74FA080B1802C19E8
:1050E0003D09B901882777FD8095982F0E940D5BB7
:1050F0007B018C01FE01E295F295F07FFE27E07FB7
:10510000FE27EC51F74F608171816A197B0988276E
:1051100077FD8095982F0E940D5B9B01AC01C80123
:10512000B7010E94265C7B018C01CC0FDD1FCC0FE8
:10513000DD1FCC0FDD1FCC0FDD1FCA51D74F68819B
:1051400079816C197D09882777FD8095982F0E94B9
:105150000D5B9B01AC01C801B7010E94725A0E940D
:10516000DA5A9B012A0D3B1DFCCD413009F44EC09B
:10517000423009F489C0433009F0F1CDC295D2958F
:10518000D07FDC27C07FDC27FE01EC52F74FA684DE
:10519000B784848495842A193B09B901882777FD4F
:1051A0008095982F0E940D5B6B017C018E010C5144
:1051B000174FF8016485758568197909882777FD87
:1051C0008095982F0E940D5B9B01AC01C701B60131
:1051D0000E94265C6B017C01F801668577856A195F
:1051E0007B09882777FD8095982F0E940D5B9B0196
:1051F000AC01C701B6010E94725A0E94DA5A680DCA
:10520000791D22273327261B370BABCDFE013197A3
:10521000E295F295F07FFE27E07FFE27DF01AC519B
:10522000B74F1696CD90DC901797E851F74FA080B6
:10523000B1802C193D09B901882777FD8095982FF9
:105240000E940D5B7B018C01C295D295D07FDC273B
:10525000C07FDC27FE01E851F74F608171816A1938
:105260007B09882777FD8095982F0E940D5B9B0115
:10527000AC01C801B7010E94265C7B018C01CC51B6
:10528000D74F6E817F815DCFDE011197FD01E295E1
:10529000F295F07FFE27E07FFE27EC51F74FC284A6
:1052A000D384AA0FBB1FAA0FBB1FAA0FBB1FAA0F35
:1052B000BB1FA451B74FAD90BC902C193D09B9014B
:1052C000882777FD8095982F0E940D5B7B018C01CC
:1052D000CC0FDD1FCC0FDD1FCC0FDD1FCC0FDD1F72
:1052E000FE01E451F74F608171816A197B098827BB
:1052F00077FD8095982F0E940D5B9B01AC01C80142
:10530000B7010E94265C7B018C01CC51D74F6A8586
:105310007B856C197D09882777FD8095982F0E94E1
:105320000D5B9B01AC01C801B7010E94725A0E943B
:10533000DA5A6A0D7B1D22273327261B370B11CD26
:10534000C3E0D0E0B2CEC2E0D0E0AFCEC4E0D0E067
:10535000ACCEC5E0D0E0A9CEC7E0D0E0A6CEC6E096
:10536000D0E0A3CEC8E0D0E0A0CE8F929F92AF92C3
:10537000BF92CF92DF92EF92FF920F931F93CF9342
:10538000DF93C091EF02D091F0028091F1029091F1
:10539000F20297FDEAC06091E8087091E9086C1785
:1053A0007D070CF067C188248A94982C8091F808B6
:1053B0009091F9088C179D074CF080E09FEF8916BB
:1053C0009FEF990609F475C1882E992480910809E8
:1053D000909109098C179D0734F0EFEF8E16EFEFCF
:1053E0009E0609F462C180911809909119098C17E1
:1053F0009D0734F0FFEF8F16FFEF9F0609F451C1B0
:1054000080912809909129098C179D0734F02FEF7E
:1054100082162FEF920609F440C1809138099091CD
:1054200039098C179D0734F03FEF83163FEF930641
:1054300009F42FC180914809909149098C179D0763
:1054400034F08FEF88168FEF980609F41EC1809113
:105450005809909159098C179D0734F09FEF8916D0
:105460009FEF990609F40DC1C0906809D0906909B1
:10547000CC16DD0634F0EFEF8E16EFEF9E0609F442
:10548000FCC0209709F460C08114910409F442C162
:105490003FEF83163FEF930609F40DC1F4013197F6
:1054A000E295F295F07FFE27E07FFE27DF01A8510D
:1054B000B74FCD90DC90EC51F74FA680B780CC1958
:1054C000DD09BE01882777FD8095982F0E940D5B2E
:1054D0007B018C0182949294B0EF9B2298248B22C2
:1054E0009824F401EC51F74F668177816A197B09A2
:1054F000882777FD8095982F0E940D5B9B01AC015A
:10550000C801B7010E94265C7B018C0188EE98E0FF
:10551000880E991EF401608171816C197D098827BC
:1055200077FD8095982F0E940D5B9B01AC01C8010F
:10553000B7010E94725A0E94DA5A6A0D7B1D70935D
:10554000C5046093C40404C01092C5041092C4043E
:10555000DF91CF911F910F91FF90EF90DF90CF904F
:10556000BF90AF909F908F9008956091F0087091D8
:10557000F1086C177D070CF02BC10FEF1FEF809126
:105580000009909101098C179D072CF02FEF0F3F18
:10559000120709F420C180911009909111098C170C
:1055A0009D072CF03FEF0F3F130709F426C18091B0
:1055B0002009909121098C179D072CF08FEF0F3F48
:1055C000180709F417C180913009909131098C179F
:1055D0009D072CF09FEF0F3F190709F408C1809138
:1055E0004009909141098C179D072CF0EFEF0F3F78
:1055F0001E0709F4F9C080915009909151098C1748
:105600009D072CF0FFEF0F3F1F0709F4EAC08091C0
:105610006009909161098C179D072CF02FEF0F3FC7
:10562000120709F4DBC0C0907009D0907109CC1644
:10563000DD062CF03FEF0F3F130709F47EC0011584
:10564000110509F07CC08091F2089091F3089C014B
:10565000C29FC001C39F900DD29F900D11240E9444
:10566000E45CCB01909581959F4F9093C504809306
:10567000C4046ECF8824992499CE88E0882E912C7A
:1056800000CF97E0892E912CEFCE26E0822E912C30
:10569000DECE35E0832E912CCDCE44E0842E912CAD
:1056A000BCCE53E0852E912CABCEE2E08E2E912C19
:1056B0009ACE81E089CE60916A0970916B09882742
:1056C00077FD8095982F0E940D5B7B018C01BE01B8
:1056D000882777FD8095982F0E940D5B9B01AC0178
:1056E000C801B7010E94265C7B018C01B6018827A6
:1056F00077FD8095982F0E940D5B9B01AC01C8013E
:10570000B7010E94725A0E94DA5A7093C5046093DE
:10571000C4041ECF8091EA089091EB089C01C29FBF
:10572000C001C39F900DD29F900D11240E94E45C94
:105730007093C5046093C4040BCF08E010E03FEF02
:105740000F3F130709F45CC002951295107F1027D4
:10575000007F1027F801EC52F74FA484B5848684AB
:105760009784CA19DB09BE01882777FD8095982F99
:105770000E940D5B6B017C010C51174FF80166858F
:10578000778568197909882777FD8095982F0E9479
:105790000D5B9B01AC01C701B6010E94265C6B0149
:1057A0007C01F801648575856A197B09882777FD76
:1057B0008095982F0E940D5B9B01AC01C701B6013B
:1057C0000E94725A0E94DA5A680D791DCB014ACFA5
:1057D00000E010E0D4CE01E010E0DDCE07E010E004
:1057E00022CF06E010E013CF05E010E004CF04E084
:1057F00010E0F5CE03E010E0E6CE02E010E0D7CEF8
:105800006091720970917309882777FD8095982FB0
:105810000E940D5B7B018C01BE01882777FD80957E
:10582000982F0E940D5B9B01AC01C801B7010E943B
:10583000265C7B018C01B601882777FD8095982F27
:105840000E940D5B9B01AC01C801B7010E94725A16
:105850000E94DA5ACB0106CF8F929F92AF92BF92ED
:10586000CF92DF92EF92FF920F931F93CF93DF932C
:10587000C091ED02D091EE028091F3029091F4027A
:1058800097FDF3C06091E4087091E5086C177D07FF
:105890000CF079C188248A94982C8091F408909116
:1058A000F5088C179D074CF080E09FEF89169FEF5D
:1058B000990609F487C1882E992480910409909152
:1058C00005098C179D0734F0EFEF8E16EFEF9E065B
:1058D00009F474C180911409909115098C179D07E2
:1058E00034F0FFEF8F16FFEF9F0609F463C180913C
:1058F0002409909125098C179D0734F02FEF82160B
:105900002FEF920609F452C1809134099091350924
:105910008C179D0734F03FEF83163FEF930609F491
:1059200041C180914409909145098C179D0734F03D
:105930008FEF88168FEF980609F430C180915409D3
:10594000909155098C179D0734F09FEF89169FEFB2
:10595000990609F41FC1C0906409D0906509CC165E
:10596000DD0634F0EFEF8E16EFEF9E0609F40EC160
:10597000209709F469C08114910409F454C13FEFE0
:1059800083163FEF930609F41FC1D4011197FD015F
:10599000E295F295F07FFE27E07FFE27EC51F74F6E
:1059A000C080D180AA0FBB1FAA0FBB1FAA0FBB1FAD
:1059B000AA0FBB1FAA51B74FAD90BC90CC19DD09FF
:1059C000BE01882777FD8095982F0E940D5B7B0193
:1059D0008C01880C991C880C991C880C991C880CCB
:1059E000991CF401EA51F74F608171816A197B09B2
:1059F000882777FD8095982F0E940D5B9B01AC0155
:105A0000C801B7010E94265C7B018C0184EE98E0FE
:105A1000880E991EF401608171816C197D098827B7
:105A200077FD8095982F0E940D5B9B01AC01C8010A
:105A3000B7010E94725A0E94DA5A6A0D7B1D709358
:105A4000C3046093C20404C01092C3041092C20441
:105A5000DF91CF911F910F91FF90EF90DF90CF904A
:105A6000BF90AF909F908F9008956091EC087091D7
:105A7000ED086C177D070CF04EC188248A94982C91
:105A80008091FC089091FD088C179D0734F02FEF52
:105A900082162FEF920609F441C180910C09909172
:105AA0000D098C179D0734F03FEF83163FEF9306E7
:105AB00009F44CC180911C0990911D098C179D0718
:105AC00034F08FEF88168FEF980609F43BC1809170
:105AD0002C0990912D098C179D0734F09FEF8916A2
